{
  "_format": "hh-sol-artifact-1",
  "contractName": "PoultryTraceability",
  "sourceName": "contracts/poultry_app.sol",
  "abi": [
    {
      "inputs": [
        {
          "internalType": "uint256",
          "name": "",
          "type": "uint256"
        }
      ],
      "name": "poultrybatch",
      "outputs": [
        {
          "internalType": "string",
          "name": "entity",
          "type": "string"
        },
        {
          "internalType": "string",
          "name": "details",
          "type": "string"
        },
        {
          "internalType": "uint256",
          "name": "batch",
          "type": "uint256"
        },
        {
          "internalType": "uint256",
          "name": "timestamp",
          "type": "uint256"
        },
        {
          "internalType": "address",
          "name": "from",
          "type": "address"
        }
      ],
      "stateMutability": "view",
      "type": "function"
    },
    {
      "inputs": [],
      "name": "retrieve",
      "outputs": [
        {
          "components": [
            {
              "internalType": "string",
              "name": "entity",
              "type": "string"
            },
            {
              "internalType": "string",
              "name": "details",
              "type": "string"
            },
            {
              "internalType": "uint256",
              "name": "batch",
              "type": "uint256"
            },
            {
              "internalType": "uint256",
              "name": "timestamp",
              "type": "uint256"
            },
            {
              "internalType": "address",
              "name": "from",
              "type": "address"
            }
          ],
          "internalType": "struct PoultryTraceability.PoultryBatch[]",
          "name": "",
          "type": "tuple[]"
        }
      ],
      "stateMutability": "view",
      "type": "function"
    },
    {
      "inputs": [
        {
          "internalType": "string",
          "name": "_entity",
          "type": "string"
        },
        {
          "internalType": "string",
          "name": "_details",
          "type": "string"
        },
        {
          "internalType": "uint256",
          "name": "_batch",
          "type": "uint256"
        }
      ],
      "name": "store",
      "outputs": [],
      "stateMutability": "nonpayable",
      "type": "function"
    }
  ],
  "bytecode": "0x608060405234801561001057600080fd5b50610d62806100206000396000f3fe608060405234801561001057600080fd5b50600436106100415760003560e01c80632e64cec114610046578063560ca8be14610064578063da9826db14610080575b600080fd5b61004e6100b4565b60405161005b9190610736565b60405180910390f35b61007e600480360381019061007991906108cd565b6102a1565b005b61009a60048036038101906100959190610958565b610397565b6040516100ab9594939291906109ed565b60405180910390f35b60606000805480602002602001604051908101604052809291908181526020016000905b8282101561029857838290600052602060002090600502016040518060a001604052908160008201805461010b90610a7d565b80601f016020809104026020016040519081016040528092919081815260200182805461013790610a7d565b80156101845780601f1061015957610100808354040283529160200191610184565b820191906000526020600020905b81548152906001019060200180831161016757829003601f168201915b5050505050815260200160018201805461019d90610a7d565b80601f01602080910402602001604051908101604052809291908181526020018280546101c990610a7d565b80156102165780601f106101eb57610100808354040283529160200191610216565b820191906000526020600020905b8154815290600101906020018083116101f957829003601f168201915b5050505050815260200160028201548152602001600382015481526020016004820160009054906101000a900473ffffffffffffffffffffffffffffffffffffffff1673ffffffffffffffffffffffffffffffffffffffff1673ffffffffffffffffffffffffffffffffffffffff1681525050815260200190600101906100d8565b50505050905090565b60006040518060a001604052808581526020018481526020018381526020014281526020013373ffffffffffffffffffffffffffffffffffffffff168152509080600181540180825580915050600190039060005260206000209060050201600090919091909150600082015181600001908161031e9190610c5a565b5060208201518160010190816103349190610c5a565b50604082015181600201556060820151816003015560808201518160040160006101000a81548173ffffffffffffffffffffffffffffffffffffffff021916908373ffffffffffffffffffffffffffffffffffffffff1602179055505050505050565b600081815481106103a757600080fd5b90600052602060002090600502016000915090508060000180546103ca90610a7d565b80601f01602080910402602001604051908101604052809291908181526020018280546103f690610a7d565b80156104435780601f1061041857610100808354040283529160200191610443565b820191906000526020600020905b81548152906001019060200180831161042657829003601f168201915b50505050509080600101805461045890610a7d565b80601f016020809104026020016040519081016040528092919081815260200182805461048490610a7d565b80156104d15780601f106104a6576101008083540402835291602001916104d1565b820191906000526020600020905b8154815290600101906020018083116104b457829003601f168201915b5050505050908060020154908060030154908060040160009054906101000a900473ffffffffffffffffffffffffffffffffffffffff16905085565b600081519050919050565b600082825260208201905092915050565b6000819050602082019050919050565b600081519050919050565b600082825260208201905092915050565b60005b83811015610573578082015181840152602081019050610558565b60008484015250505050565b6000601f19601f8301169050919050565b600061059b82610539565b6105a58185610544565b93506105b5818560208601610555565b6105be8161057f565b840191505092915050565b6000819050919050565b6105dc816105c9565b82525050565b600073ffffffffffffffffffffffffffffffffffffffff82169050919050565b600061060d826105e2565b9050919050565b61061d81610602565b82525050565b600060a08301600083015184820360008601526106408282610590565b9150506020830151848203602086015261065a8282610590565b915050604083015161066f60408601826105d3565b50606083015161068260608601826105d3565b5060808301516106956080860182610614565b508091505092915050565b60006106ac8383610623565b905092915050565b6000602082019050919050565b60006106cc8261050d565b6106d68185610518565b9350836020820285016106e885610529565b8060005b85811015610724578484038952815161070585826106a0565b9450610710836106b4565b925060208a019950506001810190506106ec565b50829750879550505050505092915050565b6000602082019050818103600083015261075081846106c1565b905092915050565b6000604051905090565b600080fd5b600080fd5b600080fd5b600080fd5b7f4e487b7100000000000000000000000000000000000000000000000000000000600052604160045260246000fd5b6107ae8261057f565b810181811067ffffffffffffffff821117156107cd576107cc610776565b5b80604052505050565b60006107e0610758565b90506107ec82826107a5565b919050565b600067ffffffffffffffff82111561080c5761080b610776565b5b6108158261057f565b9050602081019050919050565b82818337600083830152505050565b600061084461083f846107f1565b6107d6565b9050828152602081018484840111156108605761085f610771565b5b61086b848285610822565b509392505050565b600082601f8301126108885761088761076c565b5b8135610898848260208601610831565b91505092915050565b6108aa816105c9565b81146108b557600080fd5b50565b6000813590506108c7816108a1565b92915050565b6000806000606084860312156108e6576108e5610762565b5b600084013567ffffffffffffffff81111561090457610903610767565b5b61091086828701610873565b935050602084013567ffffffffffffffff81111561093157610930610767565b5b61093d86828701610873565b925050604061094e868287016108b8565b9150509250925092565b60006020828403121561096e5761096d610762565b5b600061097c848285016108b8565b91505092915050565b600082825260208201905092915050565b60006109a182610539565b6109ab8185610985565b93506109bb818560208601610555565b6109c48161057f565b840191505092915050565b6109d8816105c9565b82525050565b6109e781610602565b82525050565b600060a0820190508181036000830152610a078188610996565b90508181036020830152610a1b8187610996565b9050610a2a60408301866109cf565b610a3760608301856109cf565b610a4460808301846109de565b9695505050505050565b7f4e487b7100000000000000000000000000000000000000000000000000000000600052602260045260246000fd5b60006002820490506001821680610a9557607f821691505b602082108103610aa857610aa7610a4e565b5b50919050565b60008190508160005260206000209050919050565b60006020601f8301049050919050565b600082821b905092915050565b600060088302610b107fffffffffffffffffffffffffffffffffffffffffffffffffffffffffffffffff82610ad3565b610b1a8683610ad3565b95508019841693508086168417925050509392505050565b6000819050919050565b6000610b57610b52610b4d846105c9565b610b32565b6105c9565b9050919050565b6000819050919050565b610b7183610b3c565b610b85610b7d82610b5e565b848454610ae0565b825550505050565b600090565b610b9a610b8d565b610ba5818484610b68565b505050565b5b81811015610bc957610bbe600082610b92565b600181019050610bab565b5050565b601f821115610c0e57610bdf81610aae565b610be884610ac3565b81016020851015610bf7578190505b610c0b610c0385610ac3565b830182610baa565b50505b505050565b600082821c905092915050565b6000610c3160001984600802610c13565b1980831691505092915050565b6000610c4a8383610c20565b9150826002028217905092915050565b610c6382610539565b67ffffffffffffffff811115610c7c57610c7b610776565b5b610c868254610a7d565b610c91828285610bcd565b600060209050601f831160018114610cc45760008415610cb2578287015190505b610cbc8582610c3e565b865550610d24565b601f198416610cd286610aae565b60005b82811015610cfa57848901518255600182019150602085019450602081019050610cd5565b86831015610d175784890151610d13601f891682610c20565b8355505b6001600288020188555050505b50505050505056fea264697066735822122055f385d9e72be92b5cd8f8b3eb2cc03cda67c2e6fc33cf466943a93153538aa364736f6c63430008130033",
  "linkReferences": {},
  "deployedLinkReferences": {}
}