{
  "_format": "hh-sol-artifact-1",
  "contractName": "PoultryTraceability",
  "sourceName": "contracts/poultry_app.sol",
  "abi": [
    {
      "inputs": [
        {
          "internalType": "uint256",
          "name": "",
          "type": "uint256"
        }
      ],
      "name": "poultrybatch",
      "outputs": [
        {
          "internalType": "string",
          "name": "entity",
          "type": "string"
        },
        {
          "internalType": "string",
          "name": "details",
          "type": "string"
        },
        {
          "internalType": "string",
          "name": "lat",
          "type": "string"
        },
        {
          "internalType": "string",
          "name": "long",
          "type": "string"
        },
        {
          "internalType": "uint256",
          "name": "batch",
          "type": "uint256"
        },
        {
          "internalType": "uint256",
          "name": "timestamp",
          "type": "uint256"
        },
        {
          "internalType": "address",
          "name": "from",
          "type": "address"
        }
      ],
      "stateMutability": "view",
      "type": "function"
    },
    {
      "inputs": [],
      "name": "retrieve",
      "outputs": [
        {
          "components": [
            {
              "internalType": "string",
              "name": "entity",
              "type": "string"
            },
            {
              "internalType": "string",
              "name": "details",
              "type": "string"
            },
            {
              "internalType": "string",
              "name": "lat",
              "type": "string"
            },
            {
              "internalType": "string",
              "name": "long",
              "type": "string"
            },
            {
              "internalType": "uint256",
              "name": "batch",
              "type": "uint256"
            },
            {
              "internalType": "uint256",
              "name": "timestamp",
              "type": "uint256"
            },
            {
              "internalType": "address",
              "name": "from",
              "type": "address"
            }
          ],
          "internalType": "struct PoultryTraceability.PoultryBatch[]",
          "name": "",
          "type": "tuple[]"
        }
      ],
      "stateMutability": "view",
      "type": "function"
    },
    {
      "inputs": [
        {
          "internalType": "uint256",
          "name": "index",
          "type": "uint256"
        }
      ],
      "name": "search",
      "outputs": [
        {
          "components": [
            {
              "internalType": "string",
              "name": "entity",
              "type": "string"
            },
            {
              "internalType": "string",
              "name": "details",
              "type": "string"
            },
            {
              "internalType": "string",
              "name": "lat",
              "type": "string"
            },
            {
              "internalType": "string",
              "name": "long",
              "type": "string"
            },
            {
              "internalType": "uint256",
              "name": "batch",
              "type": "uint256"
            },
            {
              "internalType": "uint256",
              "name": "timestamp",
              "type": "uint256"
            },
            {
              "internalType": "address",
              "name": "from",
              "type": "address"
            }
          ],
          "internalType": "struct PoultryTraceability.PoultryBatch[]",
          "name": "",
          "type": "tuple[]"
        }
      ],
      "stateMutability": "nonpayable",
      "type": "function"
    },
    {
      "inputs": [
        {
          "internalType": "string",
          "name": "_entity",
          "type": "string"
        },
        {
          "internalType": "string",
          "name": "_details",
          "type": "string"
        },
        {
          "internalType": "string",
          "name": "_lat",
          "type": "string"
        },
        {
          "internalType": "string",
          "name": "_long",
          "type": "string"
        },
        {
          "internalType": "uint256",
          "name": "_batch",
          "type": "uint256"
        }
      ],
      "name": "store",
      "outputs": [],
      "stateMutability": "nonpayable",
      "type": "function"
    },
    {
      "inputs": [
        {
          "internalType": "uint256",
          "name": "",
          "type": "uint256"
        }
      ],
      "name": "temp",
      "outputs": [
        {
          "internalType": "string",
          "name": "entity",
          "type": "string"
        },
        {
          "internalType": "string",
          "name": "details",
          "type": "string"
        },
        {
          "internalType": "string",
          "name": "lat",
          "type": "string"
        },
        {
          "internalType": "string",
          "name": "long",
          "type": "string"
        },
        {
          "internalType": "uint256",
          "name": "batch",
          "type": "uint256"
        },
        {
          "internalType": "uint256",
          "name": "timestamp",
          "type": "uint256"
        },
        {
          "internalType": "address",
          "name": "from",
          "type": "address"
        }
      ],
      "stateMutability": "view",
      "type": "function"
    }
  ],
  "bytecode": "0x608060405234801561001057600080fd5b50611aed806100206000396000f3fe608060405234801561001057600080fd5b50600436106100575760003560e01c80632e64cec11461005c5780636c3755ad1461007a578063c437019e146100b0578063da9826db146100cc578063fc156fe014610102575b600080fd5b610064610132565b6040516100719190611293565b60405180910390f35b610094600480360381019061008f91906112f5565b610443565b6040516100a7979695949392919061138a565b60405180910390f35b6100ca60048036038101906100c5919061154a565b6106d5565b005b6100e660048036038101906100e191906112f5565b610805565b6040516100f9979695949392919061138a565b60405180910390f35b61011c600480360381019061011791906112f5565b610a97565b6040516101299190611293565b60405180910390f35b60606000805480602002602001604051908101604052809291908181526020016000905b8282101561043a57838290600052602060002090600702016040518060e001604052908160008201805461018990611664565b80601f01602080910402602001604051908101604052809291908181526020018280546101b590611664565b80156102025780601f106101d757610100808354040283529160200191610202565b820191906000526020600020905b8154815290600101906020018083116101e557829003601f168201915b5050505050815260200160018201805461021b90611664565b80601f016020809104026020016040519081016040528092919081815260200182805461024790611664565b80156102945780601f1061026957610100808354040283529160200191610294565b820191906000526020600020905b81548152906001019060200180831161027757829003601f168201915b505050505081526020016002820180546102ad90611664565b80601f01602080910402602001604051908101604052809291908181526020018280546102d990611664565b80156103265780601f106102fb57610100808354040283529160200191610326565b820191906000526020600020905b81548152906001019060200180831161030957829003601f168201915b5050505050815260200160038201805461033f90611664565b80601f016020809104026020016040519081016040528092919081815260200182805461036b90611664565b80156103b85780601f1061038d576101008083540402835291602001916103b8565b820191906000526020600020905b81548152906001019060200180831161039b57829003601f168201915b5050505050815260200160048201548152602001600582015481526020016006820160009054906101000a900473ffffffffffffffffffffffffffffffffffffffff1673ffffffffffffffffffffffffffffffffffffffff1673ffffffffffffffffffffffffffffffffffffffff168152505081526020019060010190610156565b50505050905090565b6001818154811061045357600080fd5b906000526020600020906007020160009150905080600001805461047690611664565b80601f01602080910402602001604051908101604052809291908181526020018280546104a290611664565b80156104ef5780601f106104c4576101008083540402835291602001916104ef565b820191906000526020600020905b8154815290600101906020018083116104d257829003601f168201915b50505050509080600101805461050490611664565b80601f016020809104026020016040519081016040528092919081815260200182805461053090611664565b801561057d5780601f106105525761010080835404028352916020019161057d565b820191906000526020600020905b81548152906001019060200180831161056057829003601f168201915b50505050509080600201805461059290611664565b80601f01602080910402602001604051908101604052809291908181526020018280546105be90611664565b801561060b5780601f106105e05761010080835404028352916020019161060b565b820191906000526020600020905b8154815290600101906020018083116105ee57829003601f168201915b50505050509080600301805461062090611664565b80601f016020809104026020016040519081016040528092919081815260200182805461064c90611664565b80156106995780601f1061066e57610100808354040283529160200191610699565b820191906000526020600020905b81548152906001019060200180831161067c57829003601f168201915b5050505050908060040154908060050154908060060160009054906101000a900473ffffffffffffffffffffffffffffffffffffffff16905087565b60006040518060e001604052808781526020018681526020018581526020018481526020018381526020014281526020013373ffffffffffffffffffffffffffffffffffffffff168152509080600181540180825580915050600190039060005260206000209060070201600090919091909150600082015181600001908161075e9190611841565b5060208201518160010190816107749190611841565b50604082015181600201908161078a9190611841565b5060608201518160030190816107a09190611841565b506080820151816004015560a0820151816005015560c08201518160060160006101000a81548173ffffffffffffffffffffffffffffffffffffffff021916908373ffffffffffffffffffffffffffffffffffffffff16021790555050505050505050565b6000818154811061081557600080fd5b906000526020600020906007020160009150905080600001805461083890611664565b80601f016020809104026020016040519081016040528092919081815260200182805461086490611664565b80156108b15780601f10610886576101008083540402835291602001916108b1565b820191906000526020600020905b81548152906001019060200180831161089457829003601f168201915b5050505050908060010180546108c690611664565b80601f01602080910402602001604051908101604052809291908181526020018280546108f290611664565b801561093f5780601f106109145761010080835404028352916020019161093f565b820191906000526020600020905b81548152906001019060200180831161092257829003601f168201915b50505050509080600201805461095490611664565b80601f016020809104026020016040519081016040528092919081815260200182805461098090611664565b80156109cd5780601f106109a2576101008083540402835291602001916109cd565b820191906000526020600020905b8154815290600101906020018083116109b057829003601f168201915b5050505050908060030180546109e290611664565b80601f0160208091040260200160405190810160405280929190818152602001828054610a0e90611664565b8015610a5b5780601f10610a3057610100808354040283529160200191610a5b565b820191906000526020600020905b815481529060010190602001808311610a3e57829003601f168201915b5050505050908060040154908060050154908060060160009054906101000a900473ffffffffffffffffffffffffffffffffffffffff16905087565b606060016000610aa79190610f27565b60005b600080549050811015610c15578260008281548110610acc57610acb611913565b5b90600052602060002090600702016004015403610c0257600160008281548110610af957610af8611913565b5b9060005260206000209060070201908060018154018082558091505060019003906000526020600020906007020160009091909190915060008201816000019081610b449190611958565b5060018201816001019081610b599190611958565b5060028201816002019081610b6e9190611958565b5060038201816003019081610b839190611958565b5060048201548160040155600582015481600501556006820160009054906101000a900473ffffffffffffffffffffffffffffffffffffffff168160060160006101000a81548173ffffffffffffffffffffffffffffffffffffffff021916908373ffffffffffffffffffffffffffffffffffffffff16021790555050505b8080610c0d90611a6f565b915050610aaa565b506001805480602002602001604051908101604052809291908181526020016000905b82821015610f1c57838290600052602060002090600702016040518060e0016040529081600082018054610c6b90611664565b80601f0160208091040260200160405190810160405280929190818152602001828054610c9790611664565b8015610ce45780601f10610cb957610100808354040283529160200191610ce4565b820191906000526020600020905b815481529060010190602001808311610cc757829003601f168201915b50505050508152602001600182018054610cfd90611664565b80601f0160208091040260200160405190810160405280929190818152602001828054610d2990611664565b8015610d765780601f10610d4b57610100808354040283529160200191610d76565b820191906000526020600020905b815481529060010190602001808311610d5957829003601f168201915b50505050508152602001600282018054610d8f90611664565b80601f0160208091040260200160405190810160405280929190818152602001828054610dbb90611664565b8015610e085780601f10610ddd57610100808354040283529160200191610e08565b820191906000526020600020905b815481529060010190602001808311610deb57829003601f168201915b50505050508152602001600382018054610e2190611664565b80601f0160208091040260200160405190810160405280929190818152602001828054610e4d90611664565b8015610e9a5780601f10610e6f57610100808354040283529160200191610e9a565b820191906000526020600020905b815481529060010190602001808311610e7d57829003601f168201915b5050505050815260200160048201548152602001600582015481526020016006820160009054906101000a900473ffffffffffffffffffffffffffffffffffffffff1673ffffffffffffffffffffffffffffffffffffffff1673ffffffffffffffffffffffffffffffffffffffff168152505081526020019060010190610c38565b505050509050919050565b5080546000825560070290600052602060002090810190610f489190610f4b565b50565b5b80821115610fd55760008082016000610f659190610fd9565b600182016000610f759190610fd9565b600282016000610f859190610fd9565b600382016000610f959190610fd9565b600482016000905560058201600090556006820160006101000a81549073ffffffffffffffffffffffffffffffffffffffff021916905550600701610f4c565b5090565b508054610fe590611664565b6000825580601f10610ff75750611016565b601f0160209004906000526020600020908101906110159190611019565b5b50565b5b8082111561103257600081600090555060010161101a565b5090565b600081519050919050565b600082825260208201905092915050565b6000819050602082019050919050565b600081519050919050565b600082825260208201905092915050565b60005b8381101561109c578082015181840152602081019050611081565b60008484015250505050565b6000601f19601f8301169050919050565b60006110c482611062565b6110ce818561106d565b93506110de81856020860161107e565b6110e7816110a8565b840191505092915050565b6000819050919050565b611105816110f2565b82525050565b600073ffffffffffffffffffffffffffffffffffffffff82169050919050565b60006111368261110b565b9050919050565b6111468161112b565b82525050565b600060e083016000830151848203600086015261116982826110b9565b9150506020830151848203602086015261118382826110b9565b9150506040830151848203604086015261119d82826110b9565b915050606083015184820360608601526111b782826110b9565b91505060808301516111cc60808601826110fc565b5060a08301516111df60a08601826110fc565b5060c08301516111f260c086018261113d565b508091505092915050565b6000611209838361114c565b905092915050565b6000602082019050919050565b600061122982611036565b6112338185611041565b93508360208202850161124585611052565b8060005b85811015611281578484038952815161126285826111fd565b945061126d83611211565b925060208a01995050600181019050611249565b50829750879550505050505092915050565b600060208201905081810360008301526112ad818461121e565b905092915050565b6000604051905090565b600080fd5b600080fd5b6112d2816110f2565b81146112dd57600080fd5b50565b6000813590506112ef816112c9565b92915050565b60006020828403121561130b5761130a6112bf565b5b6000611319848285016112e0565b91505092915050565b600082825260208201905092915050565b600061133e82611062565b6113488185611322565b935061135881856020860161107e565b611361816110a8565b840191505092915050565b611375816110f2565b82525050565b6113848161112b565b82525050565b600060e08201905081810360008301526113a4818a611333565b905081810360208301526113b88189611333565b905081810360408301526113cc8188611333565b905081810360608301526113e08187611333565b90506113ef608083018661136c565b6113fc60a083018561136c565b61140960c083018461137b565b98975050505050505050565b600080fd5b600080fd5b7f4e487b7100000000000000000000000000000000000000000000000000000000600052604160045260246000fd5b611457826110a8565b810181811067ffffffffffffffff821117156114765761147561141f565b5b80604052505050565b60006114896112b5565b9050611495828261144e565b919050565b600067ffffffffffffffff8211156114b5576114b461141f565b5b6114be826110a8565b9050602081019050919050565b82818337600083830152505050565b60006114ed6114e88461149a565b61147f565b9050828152602081018484840111156115095761150861141a565b5b6115148482856114cb565b509392505050565b600082601f83011261153157611530611415565b5b81356115418482602086016114da565b91505092915050565b600080600080600060a08688031215611566576115656112bf565b5b600086013567ffffffffffffffff811115611584576115836112c4565b5b6115908882890161151c565b955050602086013567ffffffffffffffff8111156115b1576115b06112c4565b5b6115bd8882890161151c565b945050604086013567ffffffffffffffff8111156115de576115dd6112c4565b5b6115ea8882890161151c565b935050606086013567ffffffffffffffff81111561160b5761160a6112c4565b5b6116178882890161151c565b9250506080611628888289016112e0565b9150509295509295909350565b7f4e487b7100000000000000000000000000000000000000000000000000000000600052602260045260246000fd5b6000600282049050600182168061167c57607f821691505b60208210810361168f5761168e611635565b5b50919050565b60008190508160005260206000209050919050565b60006020601f8301049050919050565b600082821b905092915050565b6000600883026116f77fffffffffffffffffffffffffffffffffffffffffffffffffffffffffffffffff826116ba565b61170186836116ba565b95508019841693508086168417925050509392505050565b6000819050919050565b600061173e611739611734846110f2565b611719565b6110f2565b9050919050565b6000819050919050565b61175883611723565b61176c61176482611745565b8484546116c7565b825550505050565b600090565b611781611774565b61178c81848461174f565b505050565b5b818110156117b0576117a5600082611779565b600181019050611792565b5050565b601f8211156117f5576117c681611695565b6117cf846116aa565b810160208510156117de578190505b6117f26117ea856116aa565b830182611791565b50505b505050565b600082821c905092915050565b6000611818600019846008026117fa565b1980831691505092915050565b60006118318383611807565b9150826002028217905092915050565b61184a82611062565b67ffffffffffffffff8111156118635761186261141f565b5b61186d8254611664565b6118788282856117b4565b600060209050601f8311600181146118ab5760008415611899578287015190505b6118a38582611825565b86555061190b565b601f1984166118b986611695565b60005b828110156118e1578489015182556001820191506020850194506020810190506118bc565b868310156118fe57848901516118fa601f891682611807565b8355505b6001600288020188555050505b505050505050565b7f4e487b7100000000000000000000000000000000000000000000000000000000600052603260045260246000fd5b60008154905061195181611664565b9050919050565b818103611966575050611a3e565b61196f82611942565b67ffffffffffffffff8111156119885761198761141f565b5b6119928254611664565b61199d8282856117b4565b6000601f8311600181146119cc57600084156119ba578287015490505b6119c48582611825565b865550611a37565b601f1984166119da87611695565b96506119e586611695565b60005b82811015611a0d578489015482556001820191506001850194506020810190506119e8565b86831015611a2a5784890154611a26601f891682611807565b8355505b6001600288020188555050505b5050505050505b565b7f4e487b7100000000000000000000000000000000000000000000000000000000600052601160045260246000fd5b6000611a7a826110f2565b91507fffffffffffffffffffffffffffffffffffffffffffffffffffffffffffffffff8203611aac57611aab611a40565b5b60018201905091905056fea2646970667358221220f2fd46a14b54e50354f2b182aa8f7fe0f750b3752b72c8d7865f9fb8d0ff39f364736f6c63430008130033",
  "linkReferences": {},
  "deployedLinkReferences": {}
}