{
  "_format": "hh-sol-artifact-1",
  "contractName": "PoultryTraceability",
  "sourceName": "contracts/poultry_app.sol",
  "abi": [
    {
      "inputs": [
        {
          "internalType": "uint256",
          "name": "",
          "type": "uint256"
        }
      ],
      "name": "poultrybatch",
      "outputs": [
        {
          "internalType": "string",
          "name": "entity",
          "type": "string"
        },
        {
          "internalType": "string",
          "name": "details",
          "type": "string"
        },
        {
          "internalType": "string",
          "name": "lat",
          "type": "string"
        },
        {
          "internalType": "string",
          "name": "long",
          "type": "string"
        },
        {
          "internalType": "uint256",
          "name": "batch",
          "type": "uint256"
        },
        {
          "internalType": "uint256",
          "name": "timestamp",
          "type": "uint256"
        },
        {
          "internalType": "address",
          "name": "from",
          "type": "address"
        }
      ],
      "stateMutability": "view",
      "type": "function"
    },
    {
      "inputs": [],
      "name": "retrieve",
      "outputs": [
        {
          "components": [
            {
              "internalType": "string",
              "name": "entity",
              "type": "string"
            },
            {
              "internalType": "string",
              "name": "details",
              "type": "string"
            },
            {
              "internalType": "string",
              "name": "lat",
              "type": "string"
            },
            {
              "internalType": "string",
              "name": "long",
              "type": "string"
            },
            {
              "internalType": "uint256",
              "name": "batch",
              "type": "uint256"
            },
            {
              "internalType": "uint256",
              "name": "timestamp",
              "type": "uint256"
            },
            {
              "internalType": "address",
              "name": "from",
              "type": "address"
            }
          ],
          "internalType": "struct PoultryTraceability.PoultryBatch[]",
          "name": "",
          "type": "tuple[]"
        }
      ],
      "stateMutability": "view",
      "type": "function"
    },
    {
      "inputs": [
        {
          "internalType": "string",
          "name": "_entity",
          "type": "string"
        },
        {
          "internalType": "string",
          "name": "_details",
          "type": "string"
        },
        {
          "internalType": "string",
          "name": "_lat",
          "type": "string"
        },
        {
          "internalType": "string",
          "name": "_long",
          "type": "string"
        },
        {
          "internalType": "uint256",
          "name": "_batch",
          "type": "uint256"
        }
      ],
      "name": "store",
      "outputs": [],
      "stateMutability": "nonpayable",
      "type": "function"
    }
  ],
  "bytecode": "0x608060405234801561001057600080fd5b5061109c806100206000396000f3fe608060405234801561001057600080fd5b50600436106100415760003560e01c80632e64cec114610046578063c437019e14610064578063da9826db14610080575b600080fd5b61004e6100b6565b60405161005b91906109e6565b60405180910390f35b61007e60048036038101906100799190610b7d565b6103c7565b005b61009a60048036038101906100959190610c68565b6104f7565b6040516100ad9796959493929190610cfd565b60405180910390f35b60606000805480602002602001604051908101604052809291908181526020016000905b828210156103be57838290600052602060002090600702016040518060e001604052908160008201805461010d90610db7565b80601f016020809104026020016040519081016040528092919081815260200182805461013990610db7565b80156101865780601f1061015b57610100808354040283529160200191610186565b820191906000526020600020905b81548152906001019060200180831161016957829003601f168201915b5050505050815260200160018201805461019f90610db7565b80601f01602080910402602001604051908101604052809291908181526020018280546101cb90610db7565b80156102185780601f106101ed57610100808354040283529160200191610218565b820191906000526020600020905b8154815290600101906020018083116101fb57829003601f168201915b5050505050815260200160028201805461023190610db7565b80601f016020809104026020016040519081016040528092919081815260200182805461025d90610db7565b80156102aa5780601f1061027f576101008083540402835291602001916102aa565b820191906000526020600020905b81548152906001019060200180831161028d57829003601f168201915b505050505081526020016003820180546102c390610db7565b80601f01602080910402602001604051908101604052809291908181526020018280546102ef90610db7565b801561033c5780601f106103115761010080835404028352916020019161033c565b820191906000526020600020905b81548152906001019060200180831161031f57829003601f168201915b5050505050815260200160048201548152602001600582015481526020016006820160009054906101000a900473ffffffffffffffffffffffffffffffffffffffff1673ffffffffffffffffffffffffffffffffffffffff1673ffffffffffffffffffffffffffffffffffffffff1681525050815260200190600101906100da565b50505050905090565b60006040518060e001604052808781526020018681526020018581526020018481526020018381526020014281526020013373ffffffffffffffffffffffffffffffffffffffff16815250908060018154018082558091505060019003906000526020600020906007020160009091909190915060008201518160000190816104509190610f94565b5060208201518160010190816104669190610f94565b50604082015181600201908161047c9190610f94565b5060608201518160030190816104929190610f94565b506080820151816004015560a0820151816005015560c08201518160060160006101000a81548173ffffffffffffffffffffffffffffffffffffffff021916908373ffffffffffffffffffffffffffffffffffffffff16021790555050505050505050565b6000818154811061050757600080fd5b906000526020600020906007020160009150905080600001805461052a90610db7565b80601f016020809104026020016040519081016040528092919081815260200182805461055690610db7565b80156105a35780601f10610578576101008083540402835291602001916105a3565b820191906000526020600020905b81548152906001019060200180831161058657829003601f168201915b5050505050908060010180546105b890610db7565b80601f01602080910402602001604051908101604052809291908181526020018280546105e490610db7565b80156106315780601f1061060657610100808354040283529160200191610631565b820191906000526020600020905b81548152906001019060200180831161061457829003601f168201915b50505050509080600201805461064690610db7565b80601f016020809104026020016040519081016040528092919081815260200182805461067290610db7565b80156106bf5780601f10610694576101008083540402835291602001916106bf565b820191906000526020600020905b8154815290600101906020018083116106a257829003601f168201915b5050505050908060030180546106d490610db7565b80601f016020809104026020016040519081016040528092919081815260200182805461070090610db7565b801561074d5780601f106107225761010080835404028352916020019161074d565b820191906000526020600020905b81548152906001019060200180831161073057829003601f168201915b5050505050908060040154908060050154908060060160009054906101000a900473ffffffffffffffffffffffffffffffffffffffff16905087565b600081519050919050565b600082825260208201905092915050565b6000819050602082019050919050565b600081519050919050565b600082825260208201905092915050565b60005b838110156107ef5780820151818401526020810190506107d4565b60008484015250505050565b6000601f19601f8301169050919050565b6000610817826107b5565b61082181856107c0565b93506108318185602086016107d1565b61083a816107fb565b840191505092915050565b6000819050919050565b61085881610845565b82525050565b600073ffffffffffffffffffffffffffffffffffffffff82169050919050565b60006108898261085e565b9050919050565b6108998161087e565b82525050565b600060e08301600083015184820360008601526108bc828261080c565b915050602083015184820360208601526108d6828261080c565b915050604083015184820360408601526108f0828261080c565b9150506060830151848203606086015261090a828261080c565b915050608083015161091f608086018261084f565b5060a083015161093260a086018261084f565b5060c083015161094560c0860182610890565b508091505092915050565b600061095c838361089f565b905092915050565b6000602082019050919050565b600061097c82610789565b6109868185610794565b935083602082028501610998856107a5565b8060005b858110156109d457848403895281516109b58582610950565b94506109c083610964565b925060208a0199505060018101905061099c565b50829750879550505050505092915050565b60006020820190508181036000830152610a008184610971565b905092915050565b6000604051905090565b600080fd5b600080fd5b600080fd5b600080fd5b7f4e487b7100000000000000000000000000000000000000000000000000000000600052604160045260246000fd5b610a5e826107fb565b810181811067ffffffffffffffff82111715610a7d57610a7c610a26565b5b80604052505050565b6000610a90610a08565b9050610a9c8282610a55565b919050565b600067ffffffffffffffff821115610abc57610abb610a26565b5b610ac5826107fb565b9050602081019050919050565b82818337600083830152505050565b6000610af4610aef84610aa1565b610a86565b905082815260208101848484011115610b1057610b0f610a21565b5b610b1b848285610ad2565b509392505050565b600082601f830112610b3857610b37610a1c565b5b8135610b48848260208601610ae1565b91505092915050565b610b5a81610845565b8114610b6557600080fd5b50565b600081359050610b7781610b51565b92915050565b600080600080600060a08688031215610b9957610b98610a12565b5b600086013567ffffffffffffffff811115610bb757610bb6610a17565b5b610bc388828901610b23565b955050602086013567ffffffffffffffff811115610be457610be3610a17565b5b610bf088828901610b23565b945050604086013567ffffffffffffffff811115610c1157610c10610a17565b5b610c1d88828901610b23565b935050606086013567ffffffffffffffff811115610c3e57610c3d610a17565b5b610c4a88828901610b23565b9250506080610c5b88828901610b68565b9150509295509295909350565b600060208284031215610c7e57610c7d610a12565b5b6000610c8c84828501610b68565b91505092915050565b600082825260208201905092915050565b6000610cb1826107b5565b610cbb8185610c95565b9350610ccb8185602086016107d1565b610cd4816107fb565b840191505092915050565b610ce881610845565b82525050565b610cf78161087e565b82525050565b600060e0820190508181036000830152610d17818a610ca6565b90508181036020830152610d2b8189610ca6565b90508181036040830152610d3f8188610ca6565b90508181036060830152610d538187610ca6565b9050610d626080830186610cdf565b610d6f60a0830185610cdf565b610d7c60c0830184610cee565b98975050505050505050565b7f4e487b7100000000000000000000000000000000000000000000000000000000600052602260045260246000fd5b60006002820490506001821680610dcf57607f821691505b602082108103610de257610de1610d88565b5b50919050565b60008190508160005260206000209050919050565b60006020601f8301049050919050565b600082821b905092915050565b600060088302610e4a7fffffffffffffffffffffffffffffffffffffffffffffffffffffffffffffffff82610e0d565b610e548683610e0d565b95508019841693508086168417925050509392505050565b6000819050919050565b6000610e91610e8c610e8784610845565b610e6c565b610845565b9050919050565b6000819050919050565b610eab83610e76565b610ebf610eb782610e98565b848454610e1a565b825550505050565b600090565b610ed4610ec7565b610edf818484610ea2565b505050565b5b81811015610f0357610ef8600082610ecc565b600181019050610ee5565b5050565b601f821115610f4857610f1981610de8565b610f2284610dfd565b81016020851015610f31578190505b610f45610f3d85610dfd565b830182610ee4565b50505b505050565b600082821c905092915050565b6000610f6b60001984600802610f4d565b1980831691505092915050565b6000610f848383610f5a565b9150826002028217905092915050565b610f9d826107b5565b67ffffffffffffffff811115610fb657610fb5610a26565b5b610fc08254610db7565b610fcb828285610f07565b600060209050601f831160018114610ffe5760008415610fec578287015190505b610ff68582610f78565b86555061105e565b601f19841661100c86610de8565b60005b828110156110345784890151825560018201915060208501945060208101905061100f565b86831015611051578489015161104d601f891682610f5a565b8355505b6001600288020188555050505b50505050505056fea2646970667358221220b5efab39b8766ac49ac7ce90af670d47f1758dc8606f0bab10f013c38391ed7c64736f6c63430008130033",
  "linkReferences": {},
  "deployedLinkReferences": {}
}