{
  "_format": "hh-sol-artifact-1",
  "contractName": "PoultryTraceability",
  "sourceName": "contracts/poultry_app.sol",
  "abi": [
    {
      "anonymous": false,
      "inputs": [
        {
          "components": [
            {
              "internalType": "string",
              "name": "entity",
              "type": "string"
            },
            {
              "internalType": "string",
              "name": "details",
              "type": "string"
            },
            {
              "internalType": "string",
              "name": "lat",
              "type": "string"
            },
            {
              "internalType": "string",
              "name": "long",
              "type": "string"
            },
            {
              "internalType": "uint256",
              "name": "batch",
              "type": "uint256"
            },
            {
              "internalType": "uint256",
              "name": "timestamp",
              "type": "uint256"
            },
            {
              "internalType": "address",
              "name": "from",
              "type": "address"
            }
          ],
          "indexed": false,
          "internalType": "struct PoultryTraceability.PoultryBatch[]",
          "name": "temp",
          "type": "tuple[]"
        }
      ],
      "name": "searched",
      "type": "event"
    },
    {
      "inputs": [
        {
          "internalType": "uint256",
          "name": "",
          "type": "uint256"
        }
      ],
      "name": "poultrybatch",
      "outputs": [
        {
          "internalType": "string",
          "name": "entity",
          "type": "string"
        },
        {
          "internalType": "string",
          "name": "details",
          "type": "string"
        },
        {
          "internalType": "string",
          "name": "lat",
          "type": "string"
        },
        {
          "internalType": "string",
          "name": "long",
          "type": "string"
        },
        {
          "internalType": "uint256",
          "name": "batch",
          "type": "uint256"
        },
        {
          "internalType": "uint256",
          "name": "timestamp",
          "type": "uint256"
        },
        {
          "internalType": "address",
          "name": "from",
          "type": "address"
        }
      ],
      "stateMutability": "view",
      "type": "function"
    },
    {
      "inputs": [],
      "name": "retrieve",
      "outputs": [
        {
          "components": [
            {
              "internalType": "string",
              "name": "entity",
              "type": "string"
            },
            {
              "internalType": "string",
              "name": "details",
              "type": "string"
            },
            {
              "internalType": "string",
              "name": "lat",
              "type": "string"
            },
            {
              "internalType": "string",
              "name": "long",
              "type": "string"
            },
            {
              "internalType": "uint256",
              "name": "batch",
              "type": "uint256"
            },
            {
              "internalType": "uint256",
              "name": "timestamp",
              "type": "uint256"
            },
            {
              "internalType": "address",
              "name": "from",
              "type": "address"
            }
          ],
          "internalType": "struct PoultryTraceability.PoultryBatch[]",
          "name": "",
          "type": "tuple[]"
        }
      ],
      "stateMutability": "view",
      "type": "function"
    },
    {
      "inputs": [
        {
          "internalType": "uint256",
          "name": "index",
          "type": "uint256"
        }
      ],
      "name": "search",
      "outputs": [
        {
          "components": [
            {
              "internalType": "string",
              "name": "entity",
              "type": "string"
            },
            {
              "internalType": "string",
              "name": "details",
              "type": "string"
            },
            {
              "internalType": "string",
              "name": "lat",
              "type": "string"
            },
            {
              "internalType": "string",
              "name": "long",
              "type": "string"
            },
            {
              "internalType": "uint256",
              "name": "batch",
              "type": "uint256"
            },
            {
              "internalType": "uint256",
              "name": "timestamp",
              "type": "uint256"
            },
            {
              "internalType": "address",
              "name": "from",
              "type": "address"
            }
          ],
          "internalType": "struct PoultryTraceability.PoultryBatch[]",
          "name": "",
          "type": "tuple[]"
        }
      ],
      "stateMutability": "nonpayable",
      "type": "function"
    },
    {
      "inputs": [
        {
          "internalType": "string",
          "name": "_entity",
          "type": "string"
        },
        {
          "internalType": "string",
          "name": "_details",
          "type": "string"
        },
        {
          "internalType": "string",
          "name": "_lat",
          "type": "string"
        },
        {
          "internalType": "string",
          "name": "_long",
          "type": "string"
        },
        {
          "internalType": "uint256",
          "name": "_batch",
          "type": "uint256"
        }
      ],
      "name": "store",
      "outputs": [],
      "stateMutability": "nonpayable",
      "type": "function"
    },
    {
      "inputs": [
        {
          "internalType": "uint256",
          "name": "",
          "type": "uint256"
        }
      ],
      "name": "temp",
      "outputs": [
        {
          "internalType": "string",
          "name": "entity",
          "type": "string"
        },
        {
          "internalType": "string",
          "name": "details",
          "type": "string"
        },
        {
          "internalType": "string",
          "name": "lat",
          "type": "string"
        },
        {
          "internalType": "string",
          "name": "long",
          "type": "string"
        },
        {
          "internalType": "uint256",
          "name": "batch",
          "type": "uint256"
        },
        {
          "internalType": "uint256",
          "name": "timestamp",
          "type": "uint256"
        },
        {
          "internalType": "address",
          "name": "from",
          "type": "address"
        }
      ],
      "stateMutability": "view",
      "type": "function"
    }
  ],
  "bytecode": "0x608060405234801561001057600080fd5b50611dbb806100206000396000f3fe608060405234801561001057600080fd5b50600436106100575760003560e01c80632e64cec11461005c5780636c3755ad1461007a578063c437019e146100b0578063da9826db146100cc578063fc156fe014610102575b600080fd5b610064610132565b60405161007191906112cb565b60405180910390f35b610094600480360381019061008f919061132d565b610443565b6040516100a797969594939291906113c2565b60405180910390f35b6100ca60048036038101906100c59190611582565b6106d5565b005b6100e660048036038101906100e1919061132d565b610805565b6040516100f997969594939291906113c2565b60405180910390f35b61011c6004803603810190610117919061132d565b610a97565b60405161012991906112cb565b60405180910390f35b60606000805480602002602001604051908101604052809291908181526020016000905b8282101561043a57838290600052602060002090600702016040518060e00160405290816000820180546101899061169c565b80601f01602080910402602001604051908101604052809291908181526020018280546101b59061169c565b80156102025780601f106101d757610100808354040283529160200191610202565b820191906000526020600020905b8154815290600101906020018083116101e557829003601f168201915b5050505050815260200160018201805461021b9061169c565b80601f01602080910402602001604051908101604052809291908181526020018280546102479061169c565b80156102945780601f1061026957610100808354040283529160200191610294565b820191906000526020600020905b81548152906001019060200180831161027757829003601f168201915b505050505081526020016002820180546102ad9061169c565b80601f01602080910402602001604051908101604052809291908181526020018280546102d99061169c565b80156103265780601f106102fb57610100808354040283529160200191610326565b820191906000526020600020905b81548152906001019060200180831161030957829003601f168201915b5050505050815260200160038201805461033f9061169c565b80601f016020809104026020016040519081016040528092919081815260200182805461036b9061169c565b80156103b85780601f1061038d576101008083540402835291602001916103b8565b820191906000526020600020905b81548152906001019060200180831161039b57829003601f168201915b5050505050815260200160048201548152602001600582015481526020016006820160009054906101000a900473ffffffffffffffffffffffffffffffffffffffff1673ffffffffffffffffffffffffffffffffffffffff1673ffffffffffffffffffffffffffffffffffffffff168152505081526020019060010190610156565b50505050905090565b6001818154811061045357600080fd5b90600052602060002090600702016000915090508060000180546104769061169c565b80601f01602080910402602001604051908101604052809291908181526020018280546104a29061169c565b80156104ef5780601f106104c4576101008083540402835291602001916104ef565b820191906000526020600020905b8154815290600101906020018083116104d257829003601f168201915b5050505050908060010180546105049061169c565b80601f01602080910402602001604051908101604052809291908181526020018280546105309061169c565b801561057d5780601f106105525761010080835404028352916020019161057d565b820191906000526020600020905b81548152906001019060200180831161056057829003601f168201915b5050505050908060020180546105929061169c565b80601f01602080910402602001604051908101604052809291908181526020018280546105be9061169c565b801561060b5780601f106105e05761010080835404028352916020019161060b565b820191906000526020600020905b8154815290600101906020018083116105ee57829003601f168201915b5050505050908060030180546106209061169c565b80601f016020809104026020016040519081016040528092919081815260200182805461064c9061169c565b80156106995780601f1061066e57610100808354040283529160200191610699565b820191906000526020600020905b81548152906001019060200180831161067c57829003601f168201915b5050505050908060040154908060050154908060060160009054906101000a900473ffffffffffffffffffffffffffffffffffffffff16905087565b60006040518060e001604052808781526020018681526020018581526020018481526020018381526020014281526020013373ffffffffffffffffffffffffffffffffffffffff168152509080600181540180825580915050600190039060005260206000209060070201600090919091909150600082015181600001908161075e9190611879565b5060208201518160010190816107749190611879565b50604082015181600201908161078a9190611879565b5060608201518160030190816107a09190611879565b506080820151816004015560a0820151816005015560c08201518160060160006101000a81548173ffffffffffffffffffffffffffffffffffffffff021916908373ffffffffffffffffffffffffffffffffffffffff16021790555050505050505050565b6000818154811061081557600080fd5b90600052602060002090600702016000915090508060000180546108389061169c565b80601f01602080910402602001604051908101604052809291908181526020018280546108649061169c565b80156108b15780601f10610886576101008083540402835291602001916108b1565b820191906000526020600020905b81548152906001019060200180831161089457829003601f168201915b5050505050908060010180546108c69061169c565b80601f01602080910402602001604051908101604052809291908181526020018280546108f29061169c565b801561093f5780601f106109145761010080835404028352916020019161093f565b820191906000526020600020905b81548152906001019060200180831161092257829003601f168201915b5050505050908060020180546109549061169c565b80601f01602080910402602001604051908101604052809291908181526020018280546109809061169c565b80156109cd5780601f106109a2576101008083540402835291602001916109cd565b820191906000526020600020905b8154815290600101906020018083116109b057829003601f168201915b5050505050908060030180546109e29061169c565b80601f0160208091040260200160405190810160405280929190818152602001828054610a0e9061169c565b8015610a5b5780601f10610a3057610100808354040283529160200191610a5b565b820191906000526020600020905b815481529060010190602001808311610a3e57829003601f168201915b5050505050908060040154908060050154908060060160009054906101000a900473ffffffffffffffffffffffffffffffffffffffff16905087565b606060016000610aa79190610f5f565b60005b600080549050811015610c15578260008281548110610acc57610acb61194b565b5b90600052602060002090600702016004015403610c0257600160008281548110610af957610af861194b565b5b9060005260206000209060070201908060018154018082558091505060019003906000526020600020906007020160009091909190915060008201816000019081610b449190611990565b5060018201816001019081610b599190611990565b5060028201816002019081610b6e9190611990565b5060038201816003019081610b839190611990565b5060048201548160040155600582015481600501556006820160009054906101000a900473ffffffffffffffffffffffffffffffffffffffff168160060160006101000a81548173ffffffffffffffffffffffffffffffffffffffff021916908373ffffffffffffffffffffffffffffffffffffffff16021790555050505b8080610c0d90611aa7565b915050610aaa565b507f430d8097b3a350eaccb89429fa2e7ea2d44a8341fa36b61f1f26608082346ea46001604051610c469190611d63565b60405180910390a16001805480602002602001604051908101604052809291908181526020016000905b82821015610f5457838290600052602060002090600702016040518060e0016040529081600082018054610ca39061169c565b80601f0160208091040260200160405190810160405280929190818152602001828054610ccf9061169c565b8015610d1c5780601f10610cf157610100808354040283529160200191610d1c565b820191906000526020600020905b815481529060010190602001808311610cff57829003601f168201915b50505050508152602001600182018054610d359061169c565b80601f0160208091040260200160405190810160405280929190818152602001828054610d619061169c565b8015610dae5780601f10610d8357610100808354040283529160200191610dae565b820191906000526020600020905b815481529060010190602001808311610d9157829003601f168201915b50505050508152602001600282018054610dc79061169c565b80601f0160208091040260200160405190810160405280929190818152602001828054610df39061169c565b8015610e405780601f10610e1557610100808354040283529160200191610e40565b820191906000526020600020905b815481529060010190602001808311610e2357829003601f168201915b50505050508152602001600382018054610e599061169c565b80601f0160208091040260200160405190810160405280929190818152602001828054610e859061169c565b8015610ed25780601f10610ea757610100808354040283529160200191610ed2565b820191906000526020600020905b815481529060010190602001808311610eb557829003601f168201915b5050505050815260200160048201548152602001600582015481526020016006820160009054906101000a900473ffffffffffffffffffffffffffffffffffffffff1673ffffffffffffffffffffffffffffffffffffffff1673ffffffffffffffffffffffffffffffffffffffff168152505081526020019060010190610c70565b505050509050919050565b5080546000825560070290600052602060002090810190610f809190610f83565b50565b5b8082111561100d5760008082016000610f9d9190611011565b600182016000610fad9190611011565b600282016000610fbd9190611011565b600382016000610fcd9190611011565b600482016000905560058201600090556006820160006101000a81549073ffffffffffffffffffffffffffffffffffffffff021916905550600701610f84565b5090565b50805461101d9061169c565b6000825580601f1061102f575061104e565b601f01602090049060005260206000209081019061104d9190611051565b5b50565b5b8082111561106a576000816000905550600101611052565b5090565b600081519050919050565b600082825260208201905092915050565b6000819050602082019050919050565b600081519050919050565b600082825260208201905092915050565b60005b838110156110d45780820151818401526020810190506110b9565b60008484015250505050565b6000601f19601f8301169050919050565b60006110fc8261109a565b61110681856110a5565b93506111168185602086016110b6565b61111f816110e0565b840191505092915050565b6000819050919050565b61113d8161112a565b82525050565b600073ffffffffffffffffffffffffffffffffffffffff82169050919050565b600061116e82611143565b9050919050565b61117e81611163565b82525050565b600060e08301600083015184820360008601526111a182826110f1565b915050602083015184820360208601526111bb82826110f1565b915050604083015184820360408601526111d582826110f1565b915050606083015184820360608601526111ef82826110f1565b91505060808301516112046080860182611134565b5060a083015161121760a0860182611134565b5060c083015161122a60c0860182611175565b508091505092915050565b60006112418383611184565b905092915050565b6000602082019050919050565b60006112618261106e565b61126b8185611079565b93508360208202850161127d8561108a565b8060005b858110156112b9578484038952815161129a8582611235565b94506112a583611249565b925060208a01995050600181019050611281565b50829750879550505050505092915050565b600060208201905081810360008301526112e58184611256565b905092915050565b6000604051905090565b600080fd5b600080fd5b61130a8161112a565b811461131557600080fd5b50565b60008135905061132781611301565b92915050565b600060208284031215611343576113426112f7565b5b600061135184828501611318565b91505092915050565b600082825260208201905092915050565b60006113768261109a565b611380818561135a565b93506113908185602086016110b6565b611399816110e0565b840191505092915050565b6113ad8161112a565b82525050565b6113bc81611163565b82525050565b600060e08201905081810360008301526113dc818a61136b565b905081810360208301526113f0818961136b565b90508181036040830152611404818861136b565b90508181036060830152611418818761136b565b905061142760808301866113a4565b61143460a08301856113a4565b61144160c08301846113b3565b98975050505050505050565b600080fd5b600080fd5b7f4e487b7100000000000000000000000000000000000000000000000000000000600052604160045260246000fd5b61148f826110e0565b810181811067ffffffffffffffff821117156114ae576114ad611457565b5b80604052505050565b60006114c16112ed565b90506114cd8282611486565b919050565b600067ffffffffffffffff8211156114ed576114ec611457565b5b6114f6826110e0565b9050602081019050919050565b82818337600083830152505050565b6000611525611520846114d2565b6114b7565b90508281526020810184848401111561154157611540611452565b5b61154c848285611503565b509392505050565b600082601f8301126115695761156861144d565b5b8135611579848260208601611512565b91505092915050565b600080600080600060a0868803121561159e5761159d6112f7565b5b600086013567ffffffffffffffff8111156115bc576115bb6112fc565b5b6115c888828901611554565b955050602086013567ffffffffffffffff8111156115e9576115e86112fc565b5b6115f588828901611554565b945050604086013567ffffffffffffffff811115611616576116156112fc565b5b61162288828901611554565b935050606086013567ffffffffffffffff811115611643576116426112fc565b5b61164f88828901611554565b925050608061166088828901611318565b9150509295509295909350565b7f4e487b7100000000000000000000000000000000000000000000000000000000600052602260045260246000fd5b600060028204905060018216806116b457607f821691505b6020821081036116c7576116c661166d565b5b50919050565b60008190508160005260206000209050919050565b60006020601f8301049050919050565b600082821b905092915050565b60006008830261172f7fffffffffffffffffffffffffffffffffffffffffffffffffffffffffffffffff826116f2565b61173986836116f2565b95508019841693508086168417925050509392505050565b6000819050919050565b600061177661177161176c8461112a565b611751565b61112a565b9050919050565b6000819050919050565b6117908361175b565b6117a461179c8261177d565b8484546116ff565b825550505050565b600090565b6117b96117ac565b6117c4818484611787565b505050565b5b818110156117e8576117dd6000826117b1565b6001810190506117ca565b5050565b601f82111561182d576117fe816116cd565b611807846116e2565b81016020851015611816578190505b61182a611822856116e2565b8301826117c9565b50505b505050565b600082821c905092915050565b600061185060001984600802611832565b1980831691505092915050565b6000611869838361183f565b9150826002028217905092915050565b6118828261109a565b67ffffffffffffffff81111561189b5761189a611457565b5b6118a5825461169c565b6118b08282856117ec565b600060209050601f8311600181146118e357600084156118d1578287015190505b6118db858261185d565b865550611943565b601f1984166118f1866116cd565b60005b82811015611919578489015182556001820191506020850194506020810190506118f4565b868310156119365784890151611932601f89168261183f565b8355505b6001600288020188555050505b505050505050565b7f4e487b7100000000000000000000000000000000000000000000000000000000600052603260045260246000fd5b6000815490506119898161169c565b9050919050565b81810361199e575050611a76565b6119a78261197a565b67ffffffffffffffff8111156119c0576119bf611457565b5b6119ca825461169c565b6119d58282856117ec565b6000601f831160018114611a0457600084156119f2578287015490505b6119fc858261185d565b865550611a6f565b601f198416611a12876116cd565b9650611a1d866116cd565b60005b82811015611a4557848901548255600182019150600185019450602081019050611a20565b86831015611a625784890154611a5e601f89168261183f565b8355505b6001600288020188555050505b5050505050505b565b7f4e487b7100000000000000000000000000000000000000000000000000000000600052601160045260246000fd5b6000611ab28261112a565b91507fffffffffffffffffffffffffffffffffffffffffffffffffffffffffffffffff8203611ae457611ae3611a78565b5b600182019050919050565b600081549050919050565b60008190508160005260206000209050919050565b60008154611b1c8161169c565b611b2681866110a5565b94506001821660008114611b415760018114611b5757611b8a565b60ff198316865281151560200286019350611b8a565b611b60856116cd565b60005b83811015611b8257815481890152600182019150602081019050611b63565b808801955050505b50505092915050565b60008160001c9050919050565b6000819050919050565b6000611bbd611bb883611b93565b611ba0565b9050919050565b600073ffffffffffffffffffffffffffffffffffffffff82169050919050565b6000611bf7611bf283611b93565b611bc4565b9050919050565b600060e0830160008084018583036000870152611c1b8382611b0f565b925050600184018583036020870152611c348382611b0f565b925050600284018583036040870152611c4d8382611b0f565b925050600384018583036060870152611c668382611b0f565b92505060048401549050611c7981611baa565b611c866080870182611134565b5060058401549050611c9781611baa565b611ca460a0870182611134565b5060068401549050611cb581611be4565b611cc260c0870182611175565b50819250505092915050565b6000611cda8383611bfe565b905092915050565b6000600782019050919050565b6000611cfa82611aef565b611d048185611079565b935083602082028501611d1685611afa565b8060005b85811015611d5157848403895281611d328582611cce565b9450611d3d83611ce2565b925060208a01995050600181019050611d1a565b50829750879550505050505092915050565b60006020820190508181036000830152611d7d8184611cef565b90509291505056fea26469706673582212200d9742c9b4ff6d11e86494335d94c79f56f7fee42d28ebbc6fe2bdecf6e7593864736f6c63430008130033",
  "linkReferences": {},
  "deployedLinkReferences": {}
}